:10066700A2AF9200C2AF75C7AA75C755E4F591A2AC
:100677000092AF53B3FB53B4FBD292120003E4F5DD
:1006870015C3E515940374809480501DB292751AB2
:1006970001751BF4751C03751DE87F007E247DF42E
:1006A7007C00120722051580D875C7AA75C7554360
:1006B700AA07A2AF9200C2AF75C7AA75C75543AACA
:1006C70040A20092AFAFAAEF44BF74FF60F7A2AF9A
:1006D7009200C2AF75C7AA75C75543AA80A20092F8
:1006E700AF30802E120003E4F515C3E515940574A9
:1006F70080948050ECB292751A00751B32751C03FA
:10070700751DE87F007E247DF47C00120722051505
:0A07170080D812088643870280C7CD
:0107210022B5
:02056C00A907DD
:10056E00E4F591E924F9600C14600E2402700D7507
:10057E00A638800875A630800375A630A2AF92000B
:10058E00C2AF75C7AA75C755439F01A20092AFE4CB
:10059E00F5A775AF04A2AF9200C2AF75C7AA75C713
:1005AE005543A401A20092AFADAE05A6A2AF920034
:1005BE00C2AF75C7AA75C75543A401A20092AFACCE
:1005CE00AEE924F8706FED25E0FFE433FEEC540144
:1005DE007A002FFFEA3EFE74F22FFF74FF3EFE7587
:1005EE00AF0C75A601E4F5A7A2AF9200C2AF75C716
:1005FE00AA75C75543A401A20092AFABAEEB644BF4
:10060E00600EABAEEB64526007ABAEEB6453701B87
:10061E00ED543FC3940774809480500A74F62FFFF4
:10062E0074FF3EFE8005EF1F70011EEF5401FCEEBD
:10063E00C313EF13FD75C7AA75C7558D8475C7AA69
:10064E0075C7558C85A2AF9200C2AF75C7AA75C784
:08065E0055539FFEA20092AF6C
:010666002271
:10098A00EF24FD60121460282402704B7F021209C2
:10099A00E27F0212090D227F0312090DA2AF920013
:1009AA00C2AF75C7AA75C7555397DFA20092AF2287
:1009BA007F021209E27F0212090D7F041209E27F07
:1009CA000412090DA2AF9200C2AF75C7AA75C75526
:0809DA005397DFA20092AF2247
:1009E200EF24FC60222402702FA2AF9200C2AF75E6
:1009F200C7AA75C755439720A20092AFE59644DF78
:100A020064DF701480F62275C7AA75C7554397C074
:090A1200E59644F764F760F82250
:100A1B00E4F591EF24FC60182402701DA2AF920044
:100A2B00C2AF75C7AA75C7555397DFA20092AF2205
:0A0A3B0075C7AA75C75553973F22EF
:10090D00E4F591A2AF9200C2AFEF24FD602F146009
:10091D005424027063A2AF9200C2AF75C7AA75C707
:10092D00555396FBA20092AFA2AF9200C2AF75C70E
:10093D00AA75C7555396FDA20092AF803BA2AF9208
:10094D0000C2AF75C7AA75C755439604A20092AFF2
:10095D00A2AF9200C2AF75C7AA75C7555396FDA237
:10096D000092AF8013A2AF9200C2AF75C7AA75C730
:0D097D0055439608A20092AFA20092AF224F
:10088600A2AF9200C2AF75C7AA75C755439F01A212
:100896000092AF75A604E4F5A775AE0F75AFE1A299
:1008A600AF9200C2AF75C7AA75C75543A504A2008B
:1008B60092AFA2AF9200C2AF75C7AA75C75543A43F
:1008C60001A20092AFE59F5440644060F8A2AF9247
:1008D60000C2AF75C7AA75C75553A5FBA20092AF54
:1008E600A2AF9200C2AF75C7AA75C755539FFEA2A5
:1008F6000092AFA2AF9200C2AF75C7AA75C75543A3
:070906009F80A20092AF22C6
:10000300A2AF9200C2AF75C7AA75C755439F01A29D
:100013000092AFE4F5A6F5A775AFC0A2AF9200C2F8
:10002300AF75C7AA75C75543A401A20092AFAFAE7F
:1000330075A601A2AF9200C2AF75C7AA75C7554393
:10004300A401A20092AFAEAE75A602A2AF9200C207
:10005300AF75C7AA75C75543A401A20092AFADAE51
:1000630075A603A2AF9200C2AF75C7AA75C7554361
:10007300A401A20092AFACAE75A604A2AF9200C2D7
:10008300AF75C7AA75C75543A401A20092AFABAE23
:100093004303F0A2AF9200C2AF75C7AA75C7554319
:1000A300A504A20092AF75AFE2F5A7F5A675AEFF62
:1000B300A2AF9200C2AF75C7AA75C75543A401A2E8
:1000C3000092AF75AFE18FAEA2AF9200C2AF75C71A
:1000D300AA75C75543A401A20092AF75A6018EAEBF
:1000E300A2AF9200C2AF75C7AA75C75543A401A2B8
:1000F3000092AF75A6028DAEA2AF9200C2AF75C7D4
:10010300AA75C75543A401A20092AF75A6038CAE8E
:10011300A2AF9200C2AF75C7AA75C75543A401A287
:100123000092AF75A6048BAEA2AF9200C2AF75C7A3
:10013300AA75C75543A401A20092AFA2AF9200C211
:10014300AF75C7AA75C75543A504A20092AFA2AF66
:100153009200C2AF75C7AA75C755539FFEA20092FE
:10016300AFE5AA30E326A2AF9200C2AF75C7AA7566
:10017300C75553AAF7A20092AFA2AF9200C2AF75C0
:0C018300C7AA75C755439F80A20092AF29
:01018F00224D
:080722008F198E188D178C163B
:10072A00538EF75389F04389017B407A42790F78D7
:10073A0000AF19AE18AD17AC1612021BA804A90512
:10074A00AA06AB07AE1CAF1DE4FCFD120190E47BC8
:10075A000CFAF9F812021BC374FF9FFF74FF9EFE86
:10076A00E49DFDE49CFCEFE48F1E7B407A42790F06
:10077A00F8AF19AE18AD17AC1612021BA804A905DA
:10078A00AA06AB07AE1CAF1DE4FCFD120190E47B88
:10079A000CFAF9F812021BC374FF9FFF74FF9EFE46
:1007AA00E49DFDE49CFC78081202ADE51B451A6045
:1007BA0018851E8A8F8CD28C308DFDC28DC28CE535
:0907CA001B151B7002151A80E2D8
:0107D3002203
:0807D4008F308E2F8D2E8C2D2D
:1007DC00538EEF53890F4389107B407A42790F78FF
:1007EC0000AF30AE2FAD2EAC2D12021BA804A90504
:1007FC00AA06AB07AE33AF34E4FCFD120190E47BE8
:10080C000CFAF9F812021BC374FF9FFF74FF9EFED3
:10081C00E49DFDE49CFCEFE48F357B407A42790F3C
:10082C00F8AF30AE2FAD2EAC2D12021BA804A905CB
:10083C00AA06AB07AE33AF34E4FCFD120190E47BA7
:10084C000CFAF9F812021BC374FF9FFF74FF9EFE93
:10085C00E49DFDE49CFC78081202ADE53245316064
:10086C001885358B8F8DD28E308FFDC28FC28EE561
:09087C003215327002153180E2E0
:010885002250
:080447008F0B8E0A8D098C0851
:10044F00E4F591E50D850CF01202C0047E00010465
:10045F00830004048B001004930020049B004004CD
:10046F00A3008004AB010004B30200000004B953E1
:10047F00C98F803653C98F43C910802E53C98F43FC
:10048F00C920802653C98F43C930801E53C98F435B
:10049F00C940801653C98F43C950800E53C98F432B
:1004AF00C960800653C98F43C970C2C843C980430E
:1004BF00C9047B407A42790F7800AF0BAE0AAD09C1
:1004CF00AC0812021BAB13AA12A911A810120190AB
:1004DF00C006C007AE0CAF0DAB07AA06E4F9F8D003
:1004EF0007D00612021BC3E49FFFE49EFE74019D1A
:1004FF00FDE49CFCEFE48F147B407A42790FF8AF58
:10050F000BAE0AAD09AC0812021BAB13AA12A9114C
:10051F00A810120190C006C007AE0CAF0DAB07AA12
:10052F0006E4F9F8D007D00612021BC3E49FFFE4DC
:10053F009EFE74019DFDE49CFC78081202ADE50F50
:10054F00450E60188514CC8FCDD2CA30CFFDC2CFE7
:0C055F00C2CAE50F150F7002150E80E2F5
:01056B00226D
:0802ED008F248E238D228C2149
:1002F500E4F591E52524FE602124FE602524FC60BB
:100305002924F8602D24F0603124E0603524C06094
:1003150039247F703B53C4F8803653C4F843C40175
:10032500802E53C4F843C402802653C4F843C40343
:10033500801E53C4F843C404801653C4F843C4054F
:10034500800E53C4F843C406800653C4F843C4075B
:100355007B407A42790F7800AF24AE23AD22AC21E1
:1003650012021BAB2BAA2AA929A828120190C007A3
:10037500AF25AB07E4FAF9F8D00712021BC3E49FD7
:10038500FFE49EFE74019DFDE49CFCEFE48F2C7B55
:10039500407A42790FF8AF24AE23AD22AC21120288
:1003A5001BAB2BAA2AA929A828120190C007AF25A3
:1003B500AB07E4FAF9F8D00712021BC3E49FFFE488
:1003C5009EFE74019DFDE49CFC78081202ADE527B4
:1003D5004526606DA2AF9200C2AF75C7AA75C75515
:1003E500E4F591A20092AF53C4EF852CC58FC6A248
:1003F500AF9200C2AF75C7AA75C755F591A2009215
:10040500AF43C408E5C444EF64EF60F8A2AF9200BF
:10041500C2AF75C7AA75C755E4F591A20092AF534F
:10042500C4EFA2AF9200C2AF75C7AA75C755F591C3
:10043500A20092AF53C4F7E5271527700215268051
:010445008D29
:010446002293
:100A4500EF14600D14600D14600E2403700DD2A90F
:0C0A550022D2AB22439B8022439C022251
:03000000020A6190
:100A6100787FE4F6D8FD9000007FFF7E03E4F0A3D9
:0A0A7100DFFCDEFA7581380206672B
:10019000E88FF0A4CC8BF0A42CFCE98EF0A42CFC0E
:1001A0008AF0EDA42CFCEA8EF0A4CDA8F08BF0A48C
:1001B0002DCC3825F0FDE98FF0A42CCD35F0FCEBEB
:1001C0008EF0A4FEA9F0EB8FF0A4CFC5F02ECD39B0
:0F01D000FEE43CFCEAA42DCE35F0FDE43CFC221D
:1001DF0075F008758200EF2FFFEE33FECD33CDCCD7
:1001EF0033CCC58233C5829BED9AEC99E58298405A
:1001FF000CF582EE9BFEED9AFDEC99FC0FD5F0D637
:10020F00E4CEFBE4CDFAE4CCF9A88222B800C1B960
:10021F000059BA002DEC8BF084CFCECDFCE5F0CB9E
:10022F00F97818EF2FFFEE33FEED33FDEC33FCEBD7
:10023F0033FB10D703994004EB99FB0FD8E5E4F992
:10024F00FA227818EF2FFFEE33FEED33FDEC33FC7F
:10025F00C933C910D7059BE99A4007EC9BFCE99A73
:10026F00F90FD8E0E4C9FAE4CCFB2275F010EF2FB8
:10027F00FFEE33FEED33FDCC33CCC833C810D707B8
:10028F009BEC9AE899400AED9BFDEC9AFCE899F8F3
:0E029F000FD5F0DAE4CDFBE4CCFAE4C8F92286
:1002AD00E8600FECC313FCED13FDEE13FEEF13FF2F
:0302BD00D8F12253
:1002C000D083D082F8E4937012740193700DA3A3CD
:1002D00093F8740193F5828883E473740293B5F004
:0D02E000067403936860E9A3A3A3A380D86C
:00000001FF
