:10071300A2AF9200C2AF75C7AA75C755E4F591A2FF
:100723000092AFF5B1F5B2F5B3F5B4F5ACF5AD6341
:1007330080FF6390FF63B0FF7531007532C8753376
:10074300037534E87F007E247DF47C001204DA8094
:02075300DE22A4
:0203DF00A9076C
:1003E100E4F591E924F9600C14600E2402700D7596
:1003F100A638800875A630800375A630A2AF92009A
:10040100C2AF75C7AA75C755439F01A20092AFE459
:10041100F5A775AF04A2AF9200C2AF75C7AA75C7A1
:100421005543A401A20092AFADAE05A6A2AF9200C2
:10043100C2AF75C7AA75C75543A401A20092AFAC5C
:10044100AEE924F8706FED25E0FFE433FEEC5401D2
:100451007A002FFFEA3EFE74F22FFF74FF3EFE7515
:10046100AF0C75A601E4F5A7A2AF9200C2AF75C7A4
:10047100AA75C75543A401A20092AFABAEEB644B82
:10048100600EABAEEB64526007ABAEEB6453701B16
:10049100ED543FC3940774809480500A74F62FFF83
:1004A10074FF3EFE8005EF1F70011EEF5401FCEE4C
:1004B100C313EF13FD75C7AA75C7558D8475C7AAF8
:1004C10075C7558C85A2AF9200C2AF75C7AA75C713
:0804D10055539FFEA20092AFFB
:0104D9002200
:1006BB00EF24FD60121460282402704B7F02120796
:1006CB00557F0212063E227F0312063EA2AF920016
:1006DB00C2AF75C7AA75C7555397DFA20092AF2259
:1006EB007F021207557F0212063E7F041207557FC9
:1006FB000412063EA2AF9200C2AF75C7AA75C755CA
:08070B005397DFA20092AF2218
:10075500EF24FC60222402702FA2AF9200C2AF7575
:10076500C7AA75C755439720A20092AFE59644DF07
:1007750064DF701480F62275C7AA75C7554397C004
:09078500E59644F764F760F822E0
:10078E00E4F591EF24FC60182402701DA2AF9200D4
:10079E00C2AF75C7AA75C7555397DFA20092AF2295
:0A07AE0075C7AA75C75553973F227F
:10063E00E4F591A2AF9200C2AFEF24FD602F1460DB
:10064E005424027063A2AF9200C2AF75C7AA75C7D9
:10065E00555396FBA20092AFA2AF9200C2AF75C7E0
:10066E00AA75C7555396FDA20092AF803BA2AF92DA
:10067E0000C2AF75C7AA75C755439604A20092AFC4
:10068E00A2AF9200C2AF75C7AA75C7555396FDA209
:10069E000092AF8013A2AF9200C2AF75C7AA75C702
:0D06AE0055439608A20092AFA20092AF2221
:0804DA008F308E2F8D2E8C2D2A
:1004E200538EF75389F04389017B407A42790F7822
:1004F20000AF30AE2FAD2EAC2D12008EA804A90590
:10050200AA06AB07AE33AF34E4FCFD120003E47B72
:100512000CFAF9F812008EC374FF9FFF74FF9EFE5F
:10052200E49DFDE49CFCEFE48F357B407A42790F39
:10053200F8AF30AE2FAD2EAC2D12008EA804A90557
:10054200AA06AB07AE33AF34E4FCFD120003E47B32
:100552000CFAF9F812008EC374FF9FFF74FF9EFE1F
:10056200E49DFDE49CFC7808120120E532453160EF
:100572001885358A8F8CD28C308DFDC28DC28CE568
:090582003215327002153180E2DD
:01058B00224D
:08058C008F198E188D178C16D3
:10059400538EEF53890F4389107B407A42790F7849
:1005A40000AF19AE18AD17AC1612008EA804A90539
:1005B400AA06AB07AE1CAF1DE4FCFD120003E47BEE
:1005C4000CFAF9F812008EC374FF9FFF74FF9EFEAD
:1005D400E49DFDE49CFCEFE48F1E7B407A42790F9E
:1005E400F8AF19AE18AD17AC1612008EA804A90501
:1005F400AA06AB07AE1CAF1DE4FCFD120003E47BAE
:100604000CFAF9F812008EC374FF9FFF74FF9EFE6C
:10061400E49DFDE49CFC7808120120E51B451A606A
:1006240018851E8B8F8DD28E308FFDC28FC28EE5C2
:090634001B151B7002151A80E26F
:01063D00229A
:0802BA008F0C8E0B8D0A8C09DC
:1002C200E4F591E50E850DF012013302F100010211
:1002D200F6000402FE001003060020030E00400395
:1002E200160080031E0100032602000000032C53A7
:1002F200C98F803653C98F43C910802E53C98F438B
:10030200C920802653C98F43C930801E53C98F43E9
:10031200C940801653C98F43C950800E53C98F43B9
:10032200C960800653C98F43C970C2C843C980439C
:10033200C9047B407A42790F7800AF0CAE0BAD0A4C
:10034200AC0912008EAB14AA13A912A81112000351
:10035200C006C007AE0DAF0EAB07AA06E4F9F8D08F
:1003620007D00612008EC3E49FFFE49EFE74019D37
:10037200FDE49CFCEFE48F157B407A42790FF8AFE5
:100382000CAE0BAD0AAC0912008EAB14AA13A91263
:10039200A811120003C006C007AE0DAF0EAB07AA2C
:1003A20006E4F9F8D007D00612008EC3E49FFFE4FA
:1003B2009EFE74019DFDE49CFC7808120120E5106C
:1003C200450F60188515CC8FCDD2CA30CFFDC2CF74
:0C03D200C2CAE51015107002150F80E281
:0103DE0022FC
:080160008F248E238D228C21D7
:10016800E4F591E52524FE602124FE602524FC6049
:100178002924F8602D24F0603124E0603524C06023
:1001880039247F703B53C4F8803653C4F843C40104
:10019800802E53C4F843C402802653C4F843C403D2
:1001A800801E53C4F843C404801653C4F843C405DE
:1001B800800E53C4F843C406800653C4F843C407EA
:1001C8007B407A42790F7800AF24AE23AD22AC2170
:1001D80012008EAB2BAA2AA929A828120003C0074F
:1001E800AF25AB07E4FAF9F8D00712008EC3E49FF5
:1001F800FFE49EFE74019DFDE49CFCEFE48F2C7BE4
:10020800407A42790FF8AF24AE23AD22AC21120018
:100218008EAB2BAA2AA929A828120003C007AF254C
:10022800AB07E4FAF9F8D00712008EC3E49FFFE4A5
:100238009EFE74019DFDE49CFC7808120120E527D0
:100248004526606DA2AF9200C2AF75C7AA75C755A3
:10025800E4F591A20092AF53C4EF852CC58FC6A2D6
:10026800AF9200C2AF75C7AA75C755F591A20092A3
:10027800AF43C408E5C444EF64EF60F8A2AF92004E
:10028800C2AF75C7AA75C755E4F591A20092AF53DE
:10029800C4EFA2AF9200C2AF75C7AA75C755F59152
:1002A800A20092AF53C4F7E52715277002152680E0
:0102B8008DB8
:0102B9002222
:1007B800EF14600D14600D14600E2403700DD2A99F
:0C07C80022D2AB22439B8022439C0222E1
:030000000207D420
:1007D400787FE4F6D8FD9000007FFF7E03E4F0A369
:0A07E400DFFCDEFA758190020713B6
:10000300E88FF0A4CC8BF0A42CFCE98EF0A42CFC9C
:100013008AF0EDA42CFCEA8EF0A4CDA8F08BF0A41A
:100023002DCC3825F0FDE98FF0A42CCD35F0FCEB79
:100033008EF0A4FEA9F0EB8FF0A4CFC5F02ECD393E
:0F004300FEE43CFCEAA42DCE35F0FDE43CFC22AB
:1000520075F008758200EF2FFFEE33FECD33CDCC65
:1000620033CCC58233C5829BED9AEC99E5829840E8
:100072000CF582EE9BFEED9AFDEC99FC0FD5F0D6C5
:10008200E4CEFBE4CDFAE4CCF9A88222B800C1B9EF
:100092000059BA002DEC8BF084CFCECDFCE5F0CB2D
:1000A200F97818EF2FFFEE33FEED33FDEC33FCEB66
:1000B20033FB10D703994004EB99FB0FD8E5E4F921
:1000C200FA227818EF2FFFEE33FEED33FDEC33FC0E
:1000D200C933C910D7059BE99A4007EC9BFCE99A02
:1000E200F90FD8E0E4C9FAE4CCFB2275F010EF2F47
:1000F200FFEE33FEED33FDCC33CCC833C810D70747
:100102009BEC9AE899400AED9BFDEC9AFCE899F881
:0E0112000FD5F0DAE4CDFBE4CCFAE4C8F92214
:10012000E8600FECC313FCED13FDEE13FEEF13FFBD
:03013000D8F122E1
:10013300D083D082F8E4937012740193700DA3A35B
:1001430093F8740193F5828883E473740293B5F092
:0D015300067403936860E9A3A3A3A380D8FA
:00000001FF
