:030063000204EEA6
:1004EE00C0915392FE85E49085E5A0C2CFD09132A3
:10000300A2AF9200C2AF75C7AA75C755E4F591A216
:100013000092AFF5B1F5B2F5B3F5B4F5ACF5ADA219
:10002300AF9200C2AF75C7AA75C755F591A20092EA
:10003300AF53B1FE53B2FED28053C8FE75C98B5382
:10004300930F43932053F2F043F2034392404394BC
:0A00530040439B04D2CAD2AF80FEE6
:100499000F0AFF04CAFF01F6FF03C7FF03FFFF00AE
:0D04A9005D010800010900041900000000B9
:1004CA0020920EE4F509F51CF51BF51AF5197508C5
:0204DA000122FD
:1001F600209203020284AFE5EFFEADE47C00E42D1D
:10020600FFEC3EFEC3EF9464EE940050028009D3E7
:10021600EF9440EE94064004E4F50822D3EF9420D0
:10022600EE94034023AF1CAE1BAD1AAC1978011235
:1002360002E78F1C8E1B8D1A8C190509E509640CC3
:100246007002803375080222AF1CAE1BAD1AAC19C2
:1002560078011202E78F1C8E1B8D1A8C19E51C443F
:1002660001F51CE51BF51BE51AF51AE519F5190547
:0E02760009E509640C7004750804227508037C
:010284002257
:1003C700209234AFE5EFFEADE47C00E42DFFEC3E78
:1003D700FEC3EF9464EE940050028018D3EF94406C
:1003E700EE94064002800DC3EF9420EE9403500470
:0703F70075080122E4F5087E
:0103FE0022DC
:1003FF00209234AFE5EFFEADE47C00E42DFFEC3E40
:10040F00FEC3EF9464EE940050028018D3EF944033
:10041F00EE94064002800DD3EF9420EE9403400437
:07042F0075080122E4F50845
:0104360022A3
:01005D002280
:0C04FE0053C98F43C920C2C843C908225B
:1004DC0043C901D2CAE4F5F17593027594104392A5
:0204EC001022DC
:1004B700E4F508F51CF51BF51AF519F5091204FE04
:0304C7000204DC50
:10033E008B1D8A1E891F30CF05C2CFE4F508E592CA
:10034E0030E015E50875F003A4240AF808E6FA086B
:10035E00E6F91203145392FEE50864047016F508CC
:10036E00AF1CAE1BAD1AAC19AB1DAA1EA91F1202F3
:07037E00FA7F01227F00223B
:02006600A907E8
:10006800E4F591E924F9600C14600924027008751C
:10007800A638800375A630A2AF9200C2AF75C7AA92
:1000880075C755439F01A20092AFE4F5A775AF0469
:10009800A2AF9200C2AF75C7AA75C75543A401A203
:1000A8000092AFADAE05A6A2AF9200C2AF75C7AAC7
:1000B80075C75543A401A20092AFACAEE924F8700D
:1000C8006FED25E0FFE433FEEC54017A002FFFEAE0
:1000D8003EFE74F22FFF74FF3EFE75AF0C75A6014D
:1000E800E4F5A7A2AF9200C2AF75C7AA75C755437A
:1000F800A401A20092AFABAEEB644B600EABAEEBCB
:1001080064526007ABAEEB6453701BED543FC3946D
:100118000774809480500A74F62FFF74FF3EFE80A7
:1001280005EF1F70011EEF5401FCEEC313EF13FD22
:1001380075C7AA75C7558D8475C7AA75C7558C85A7
:10014800A2AF9200C2AF75C7AA75C755539FFEA24A
:030158000092AF63
:01015B002281
:10038500EF24FD6011146012240270357F021204FF
:10039500377F020202857F0380117F021204377FB7
:1003A500021202857F041204377F04120285A2AF70
:1003B5009200C2AF75C7AA75C7555397DFA20092C1
:0203C500AF2265
:10043700EF24FC60212402702EA2AF9200C2AF7598
:10044700C7AA75C755439720A20092AFE59644DF28
:1004570064DF701380F675C7AA75C7554397C0E563
:080467009644F764F760F822E7
:10046F00E4F591EF24FC60182402701DA2AF9200F6
:10047F00C2AF75C7AA75C7555397DFA20092AF22B7
:0A048F0075C7AA75C75553973F22A1
:10028500E4F591A2AF9200C2AFEF24FD60181460AF
:100295003924027048A2AF9200C2AF75C7AA75C7CC
:1002A500555396FB800FA2AF9200C2AF75C7AA75D2
:1002B500C755439604A20092AFA2AF9200C2AF7594
:1002C500C7AA75C7555396FD800FA2AF9200C2AF5E
:1002D50075C7AA75C755439608A20092AFA20092AA
:0202E500AF2246
:0300000002015C9E
:10015C00787FE4F6D8FD9000007FFF7E03E4F0A3E7
:0A016C00DFFCDEFA7581230201B109
:10017600020003E493A3F8E493A34003F68001F29C
:1001860008DFF48029E493A3F85407240CC8C3338A
:10019600C4540F4420C8834004F456800146F6DF59
:1001A600E4800B0102040810204080900499E47E4C
:1001B600019360BCA3FF543F30E509541FFEE4934E
:1001C600A360010ECF54C025E060A840B8E493A315
:1001D600FAE493A3F8E493A3C8C582C8CAC583CA40
:1001E600F0A3C8C582C8CAC583CADFE9DEE780BEF8
:0104B6000045
:1002E700E8600FEFC333FFEE33FEED33FDEC33FC75
:0302F700D8F12219
:1002FA00BB010789828A830203265005E9F80203B3
:0A030A001ABBFE05E9F802033222D7
:060314008A838982E47374
:0C031A00ECF608EDF608EEF608EFF6220F
:0C032600ECF0A3EDF0A3EEF0A3EFF0224A
:0C033200ECF208EDF208EEF208EFF22207
:00000001FF
