:10068700011500011C00010D0001130001160001F6
:0B0697000E00010C00011B000114000C
:1005E80012083E120867A2AF9200C2AF75C7AA757B
:1005F800C75543AA40A20092AFA2AF9200C2AF75FE
:10060800C7AA75C75543AA40A20092AF7B007A00DB
:1006180079177D0112053FEF60DFE5122401F5121D
:10062800E43511F511E43510F510E4350FF50F80B8
:01063800C8F9
:1003AC00A2AF9200C2AF75C7AA75C75543AA40A2A7
:1003BC000092AFD286D2DFD2917FBC7E027D007CD0
:1003CC0000120639C291A2AF9200C2AF75C7AA75CE
:1003DC00C75543AA40A20092AF7FBC7E027D007C31
:1003EC0000120639A2AF9200C2AF75C7AA75C755E5
:1003FC0043AA40A20092AF7FBC7E027D007C00121B
:0F040C000639C2DFD287E4F515751401C28622C6
:10059400E4F555F556A2AF9200C2AF75C7AA75C768
:1005A4005543AA40A20092AFD2DFD2917FBC7E0213
:1005B4007D007C00120639C291C2DF7F2C7E017D52
:1005C400007C001206390556E55670020555C394A1
:1005D40002E5556480948040BC750D28C286E4F51C
:0305E40014C287B7
:0105E70022F1
:10000E00EF607BD2DFD291D2867FBC7E027D007CF8
:10001E0000120639C2DFC291C2867F2C7E017D009E
:10002E007C00120639A2AF9200C2AF75C7AA75C77F
:10003E005543AA40A20092AFD291D2867FBC7E02D7
:10004E007D007C00120639C291C2867F2C7E017D16
:10005E00007C00120639A2AF9200C2AF75C7AA7516
:10006E00C75543AA40A20092AFD291D2867FBC7EE2
:10007E00027D007C00120639C291C286807CD2DFDE
:10008E007FBC7E027D007C00120639A2AF9200C2B8
:10009E00AF75C7AA75C75543AA40A20092AF7FBCE1
:1000AE007E027D007C00120639A2AF9200C2AF75AF
:1000BE00C7AA75C75543AA40A20092AF7FBC7E0265
:1000CE007D007C00120639C2DF7F2C7E017D007C14
:1000DE0000120639A2AF9200C2AF75C7AA75C755F6
:1000EE0043AA40A20092AFD2DFD2917FBC7E027DA6
:1000FE00007C00120639C2DFC291A2AF9200C2AFDD
:0E010E0075C7AA75C75543AA40A20092AF223A
:1006A2000121000F34FF0743FF032DFF0778FF07E7
:1006B200A2FF04E7013200013300044300000000FE
:10074300209531AFE5EFFEADE47C00E42DFFEC3EF8
:10075300FED3EF9458EE941B4017EF9434EE94219C
:10076300500FE4F533F546F545F544F5437532018D
:0407730022E4F53255
:01077700225F
:10032D0030957BAFE5EFFEADE47C00E42DFFEC3EB8
:10033D00FED3EF942CEE94014023EF94F4EE940150
:10034D00501BAF46AE45AD44AC4378011202CA8F87
:10035D00468E458D448C43053375320222D3EF947E
:10036D00B0EE94044035EF9478EE9405502DAF46E1
:10037D00AE45AD44AC4378011202CA8F468E458D11
:10038D00448C43E5464401F546E545F545E544F520
:0E039D0044E543F543053375320322E4F5329F
:0103AB00222F
:10077800209526AFE5EFFEADE47C00E42DFFEC3ECE
:10078800FED3EF94B0EE9404400CEF9478EE940509
:09079800500475320122E4F5322F
:0107A1002235
:1007A200209526AFE5EFFEADE47C00E42DFFEC3EA4
:1007B200FED3EF942CEE9401400CEF94F4EE9401EE
:0907C200500475320122E4F53205
:0107CB00220B
:1004E700E52125E025E02422F81202F7AB46AA45CC
:1004F700A944A843C31202B9603BC3E52194017420
:100507008094805002801AE52125E025E0241EF81A
:100517001202F7AB46AA45A944A843C31202B96021
:1005270016AF46AE45AD44AC43E52125E025E024B2
:0805370022F802030305212252
:0F087A0053C8FE75C98943C92053C9AFD2CA22DA
:100854005393FC43930253F1F043F1084392104342
:03086400941022CB
:10086700E4F532F546F545F544F543F533120854FA
:0308770002087AFA
:10053F008B518A5289538D5430CF05C2CFE4F53297
:10054F00E59230E03DE53275F003A42434F808E677
:10055F00FA08E6F912030F5392FEE533640B70228B
:10056F00F533F532AF46AE45AD44AC431202ACEEB7
:10057F005407FEE4FDFCAB51AA52A9531202DD7FD2
:05058F0001227F0022A3
:0606C200044D00000000E1
:03000B000207F6F3
:1007F600C0E0C0D0C091758CC1758AE0E550240177
:10080600F550E4354FF54FE4354EF54EE4354DF5EC
:080816004DD091D0D0D0E032AA
:10083E005389F0438901438E08758CC1758AE0D2C5
:06084E00A9D2AFD28C22FA
:09088900AF50AE4FAD4EAC4D2254
:080639008F4A8E498D488C4761
:10064100E4F583F582AF82AE83EE3395E0FDFCAB3A
:0D0651004AAA49A948A847D31202B9402877
:10065E00E4F54CC3E54C9403748094805017E4F594
:10066E004BC3E54B94FF74809480500500054B807E
:05067E00F0054C80DED8
:03068300A380C091
:010686002251
:10041B00A2AF9200C2AF75C7AA75C755E4F591A2FA
:10042B000092AF53B3FE43B401A2AF9200C2AF75BB
:10043B00C7AA75C755F591A20092AF53B3FD43B44C
:10044B0002A2AF9200C2AF75C7AA75C755F591A2AC
:10045B000092AF53B1BF43B240A2AF9200C2AF758F
:10046B00C7AA75C755F591A20092AF53B17F43B29E
:0A047B0080D290C286C287C291228F
:10081E00D2DC538EBF53DF0775D11275D9EF75D564
:10082E000975DD7853B1FE43B20143DE08C2DF2203
:02011C00A90731
:10011E00E4F591E924F9600C146009240270087565
:10012E00A638800375A630A2AF9200C2AF75C7AADB
:10013E0075C755439F01A20092AFE4F5A775AF04B2
:10014E00A2AF9200C2AF75C7AA75C75543A401A24C
:10015E000092AFADAE05A6A2AF9200C2AF75C7AA10
:10016E0075C75543A401A20092AFACAEE924F87056
:10017E006FED25E0FFE433FEEC54017A002FFFEA29
:10018E003EFE74F22FFF74FF3EFE75AF0C75A60196
:10019E00E4F5A7A2AF9200C2AF75C7AA75C75543C3
:1001AE00A401A20092AFABAEEB644B600EABAEEB14
:1001BE0064526007ABAEEB6453701BED543FC394B7
:1001CE000774809480500A74F62FFF74FF3EFE80F1
:1001DE0005EF1F70011EEF5401FCEEC313EF13FD6C
:1001EE0075C7AA75C7558D8475C7AA75C7558C85F1
:1001FE00A2AF9200C2AF75C7AA75C755539FFEA294
:03020E000092AFAC
:0102110022CA
:1006C900EF24FD6011146012240270357F021207B5
:1006D9000B7F020204857F0380117F0212070B7FC3
:1006E900021204857F0412070B7F04120485A2AF4E
:1006F9009200C2AF75C7AA75C7555397DFA200927A
:02070900AF221D
:10070B00EF24FC60212402702EA2AF9200C2AF75C1
:10071B00C7AA75C755439720A20092AFE59644DF51
:10072B0064DF701380F675C7AA75C7554397C0E58C
:08073B009644F764F760F82210
:1007CC00E4F591EF24FC60182402701DA2AF920096
:1007DC00C2AF75C7AA75C7555397DFA20092AF2257
:0A07EC0075C7AA75C75553973F2241
:10048500E4F591A2AF9200C2AFEF24FD60181460AD
:100495003924027048A2AF9200C2AF75C7AA75C7CA
:1004A500555396FB800FA2AF9200C2AF75C7AA75D0
:1004B500C755439604A20092AFA2AF9200C2AF7592
:1004C500C7AA75C7555396FD800FA2AF9200C2AF5C
:1004D50075C7AA75C755439608A20092AFA20092A8
:0204E500AF2244
:03000000020212E7
:10021200787FE4F6D8FD9000007FFF7E03E4F0A330
:0A022200DFFCDEFA75815602026768
:10022C000205E8E493A3F8E493A34003F68001F2FB
:10023C0008DFF48029E493A3F85407240CC8C333D3
:10024C00C4540F4420C8834004F456800146F6DFA2
:10025C00E4800B0102040810204080900687E47EA5
:10026C00019360BCA3FF543F30E509541FFEE49397
:10027C00A360010ECF54C025E060A840B8E493A35E
:10028C00FAE493A3F8E493A3C8C582C8CAC583CA89
:10029C00F0A3C8C582C8CAC583CADFE9DEE780BE41
:0106C8000031
:0D02AC00CFF4CFCEF4CECDF4CDCCF4CC22E7
:1002B900EB9FF5F0EA9E42F0E99D42F0E89C45F09B
:0102C9002212
:1002CA00E8600FEFC333FFEE33FEED33FDEC33FC92
:0302DA00D8F12236
:1002DD00BB010789828A830203155005E9F80203E1
:0A02ED0003BBFE05E9F8020321221D
:0C02F700E6FC08E6FD08E6FE08E6FF2233
:0C030300ECF608EDF608EEF608EFF62226
:06030F008A838982E47379
:0C031500ECF0A3EDF0A3EEF0A3EFF0225B
:0C032100ECF208EDF208EEF208EFF22218
:00000001FF
