:03001300020003E5
:07000300C091C28BD09132C5
:10024900A2AF9200C2AF75C7AA75C755E4F591A2CE
:100259000092AF53B37F53B47FD297C28AD2AAD246
:04026900AF80FE2242
:02001600A90738
:10001800E4F591E924F9600C14600E2402700D7562
:10002800A638800875A630800375A630A2AF920066
:10003800C2AF75C7AA75C755439F01A20092AFE426
:10004800F5A775AF04A2AF9200C2AF75C7AA75C76E
:100058005543A401A20092AFADAE05A6A2AF92008F
:10006800C2AF75C7AA75C75543A401A20092AFAC29
:10007800AEE924F8706FED25E0FFE433FEEC54019F
:100088007A002FFFEA3EFE74F22FFF74FF3EFE75E2
:10009800AF0C75A601E4F5A7A2AF9200C2AF75C771
:1000A800AA75C75543A401A20092AFABAEEB644B4F
:1000B800600EABAEEB64526007ABAEEB6453701BE3
:1000C800ED543FC3940774809480500A74F62FFF50
:1000D80074FF3EFE8005EF1F70011EEF5401FCEE19
:1000E800C313EF13FD75C7AA75C7558D8475C7AAC5
:1000F80075C7558C85A2AF9200C2AF75C7AA75C7E0
:0801080055539FFEA20092AFC7
:0101100022CC
:10018E00EF24FD60121460282402704B7F021201CE
:10019E00E67F02120111227F03120111A2AF92001B
:1001AE00C2AF75C7AA75C7555397DFA20092AF228B
:1001BE007F021201E67F021201117F041201E67F17
:1001CE0004120111A2AF9200C2AF75C7AA75C7552E
:0801DE005397DFA20092AF224B
:1001E600EF24FC60222402702FA2AF9200C2AF75EA
:1001F600C7AA75C755439720A20092AFE59644DF7C
:1002060064DF701480F62275C7AA75C7554397C078
:09021600E59644F764F760F82254
:10021F00E4F591EF24FC60182402701DA2AF920048
:10022F00C2AF75C7AA75C7555397DFA20092AF2209
:0A023F0075C7AA75C75553973F22F3
:10011100E4F591A2AF9200C2AFEF24FD602F14600D
:100121005424027063A2AF9200C2AF75C7AA75C70B
:10013100555396FBA20092AFA2AF9200C2AF75C712
:10014100AA75C7555396FDA20092AF803BA2AF920C
:1001510000C2AF75C7AA75C755439604A20092AFF6
:10016100A2AF9200C2AF75C7AA75C7555396FDA23B
:100171000092AF8013A2AF9200C2AF75C7AA75C734
:0D01810055439608A20092AFA20092AF2253
:0300000002026D8C
:10026D00787FE4F6D8FD9000007FFF7E03E4F0A3D5
:0A027D00DFFCDEFA75812002024961
:00000001FF
