:0F0003000A2048656C6C6F20776F726C64210067
:100026007F06120748A2AF920CC2AF75C7AA75C762
:1000360055E4F591A20C92AF53B1BF43B240900084
:100046000404F0A31204D00001C2007F007E367DB6
:100056006E7C0112059FD299D2097BFF7A00790343
:060066001200E980FE22F9
:10074800E4F591EF24F9600C14600E2402700D7525
:10075800A638800875A630800375A630A2AF920C23
:10076800C2AF75C7AA75C755439F01A20C92AFE4E3
:10077800F5A775AF04A2AF920CC2AF75C7AA75C72B
:100788005543A401A20C92AF85AE0805A6A2AF926C
:100798000CC2AF75C7AA75C75543A401A20C92AF86
:1007A80085AE09EF24F87076E50825E0FFE433FE0E
:1007B800E50954017C002FFFEC3EFE74F22FFF7414
:1007C800FF3EFE75AF0C75A601E4F5A7A2AF920C2B
:1007D800C2AF75C7AA75C75543A401A20C92AFADA5
:1007E800AEED644B600EADAEED64526007ADAEED9C
:1007F8006453701EE508543FF50AC3940774809447
:1008080080500A74F62FFF74FF3EFE8005EF1F70BC
:10081800011EEF5401F509EEC313EF13F50875C770
:10082800AA75C75585088475C7AA75C755850985EA
:10083800A2AF920CC2AF75C7AA75C755539FFEA247
:030848000C92AF60
:01084B00228A
:10096300EF24FD60121460282402704B7F021209E9
:10097300BB7F021208E6227F031208E6A2AF920CA5
:10098300C2AF75C7AA75C7555397DFA20C92AF22A2
:100993007F021209BB7F021208E67F041209BB7FA4
:1009A300041208E6A2AF920CC2AF75C7AA75C75569
:0809B3005397DFA20C92AF2262
:1009BB00EF24FC60222402702FA2AF920CC2AF7501
:1009CB00C7AA75C755439720A20C92AFE59644DF93
:1009DB0064DF701480F62275C7AA75C7554397C09C
:0909EB00E59644F764F760F82278
:100A2900E4F591EF24FC60182402701DA2AF920C2A
:100A3900C2AF75C7AA75C7555397DFA20C92AF22EB
:0A0A490075C7AA75C75553973F22E1
:1008E600E4F591A2AF920CC2AFEF24FD602F146025
:1008F6005424027063A2AF920CC2AF75C7AA75C723
:10090600555396FBA20C92AFA2AF920CC2AF75C71D
:10091600AA75C7555396FDA20C92AF803BA2AF9223
:100926000CC2AF75C7AA75C755439604A20C92AF01
:10093600A2AF920CC2AF75C7AA75C7555396FDA252
:100946000C92AF8013A2AF920CC2AF75C7AA75C73F
:0D09560055439608A20C92AFA20C92AF225E
:04006C00C109C10AFB
:03002300020A7A54
:100A7A00C0E0C083C082C09130980AD20A90002890
:100A8A00E599F0C298309905200902C299D091D00F
:060A9A0082D083D0E0329F
:03007B00020AA0D6
:100AA000C0E0C083C082C09130F80A900029E59A66
:100AB000F0D20BC2F830F905200902C2F9D091D06A
:060AC00082D083D0E03279
:10059F009000001204C4900004E014605E14700315
:1005AF000206B5240260030207477598504389205D
:1005BF00438780438E10A2AF920CC2AF75C7AA7546
:1005CF00C755E4F591A20C92AF53C4DF7B10FAF933
:1005DF00F8900000E0FCA3E0FDA3E0FEA3E0FF1213
:1005EF00041F900005E0F8A3E0F9A3E0FAA3E0FBF5
:1005FF0012041FEFF404F58DD28E227598504387A5
:10060F008053C4F8A2AF920CC2AF75C7AA75C75575
:10061F00E4F591A20C92AF43C4207B10FAF9F89045
:10062F000000E0FCA3E0FDA3E0FEA3E0FF12041F27
:10063F00900005E0F8A3E0F9A3E0FAA3E0FB1204B1
:10064F001FC3E49FFFE49EFE74019DFDE49CFC78B4
:10065F00081204B18FC6E47B10FAF9F8900000E09D
:10066F00FCA3E0FDA3E0FEA3E0FF12041F90000532
:10067F00E0F8A3E0F9A3E0FAA3E0FB12041FC3E440
:10068F009FFFE49EFE74019DFDE49CFCEFE48FC58B
:10069F00A2AF920CC2AF75C7AA75C755F591A20C40
:1006AF0092AF43C4082275F85075C480E47B10FAEA
:1006BF00F9F8900000E0FCA3E0FDA3E0FEA3E0FF4B
:1006CF0012041F900005E0F8A3E0F9A3E0FAA3E0FD
:1006DF00FB12041FC3E49FFFE49EFE74019DFDE423
:1006EF009CFC78081204B18FC6E47B10FAF9F890DD
:1006FF000000E0FCA3E0FDA3E0FEA3E0FF12041F57
:10070F00900005E0F8A3E0F9A3E0FAA3E0FB1204E0
:10071F001FC3E49FFFE49EFE74019DFDE49CFCEF6C
:10072F00E48FC5A2AF920CC2AF75C7AA75C755F5B6
:09073F0091A20C92AF43C4082200
:0F001200EF1460060470078D9922AF058F9A22B4
:1009F400A2AF920CC2AF75C7AA75C755E4F591A210
:100A04000C92AF53B1BF53B2BF900004F0A31204D1
:100A1400D00001C2007F007E367D6E7C0112059FEE
:050A2400D299D2092265
:0300000002084CA7
:10084C00787FE4F6D8FD9000007FFF7E03E4F0A3F0
:0A085C00DFFCDEFA7581210208A11D
:10086600020026E493A3F8E493A34003F68001F282
:1008760008DFF48029E493A3F85407240CC8C33393
:10088600C4540F4420C8834004F456800146F6DF62
:10089600E4800B010204081020408090006CE47E86
:1008A600019360BCA3FF543F30E509541FFEE49357
:1008B600A360010ECF54C025E060A840B8E493A31E
:1008C600FAE493A3F8E493A3C8C582C8CAC583CA49
:1008D600F0A3C8C582C8CAC583CADFE9DEE780BE01
:01007000008F
:1003E30075F008758200EF2FFFEE33FECD33CDCCD1
:1003F30033CCC58233C5829BED9AEC99E582984054
:100403000CF582EE9BFEED9AFDEC99FC0FD5F0D630
:10041300E4CEFBE4CDFAE4CCF9A88222B800C1B95A
:100423000059BA002DEC8BF084CFCECDFCE5F0CB98
:10043300F97818EF2FFFEE33FEED33FDEC33FCEBD1
:1004430033FB10D703994004EB99FB0FD8E5E4F98C
:10045300FA227818EF2FFFEE33FEED33FDEC33FC79
:10046300C933C910D7059BE99A4007EC9BFCE99A6D
:10047300F90FD8E0E4C9FAE4CCFB2275F010EF2FB2
:10048300FFEE33FEED33FDCC33CCC833C810D707B2
:100493009BEC9AE899400AED9BFDEC9AFCE899F8ED
:0E04A3000FD5F0DAE4CDFBE4CCFAE4C8F92280
:1004B100E8600FECC313FCED13FDEE13FEEF13FF29
:0304C100D8F1224D
:0C04C400ECF0A3EDF0A3EEF0A3EFF022AB
:1004D000A8828583F0D083D0821204E71204E71249
:1004E00004E71204E7E473E493A3C583C5F0C5836E
:1004F000C8C582C8F0A3C583C5F0C583C8C582C876
:0105000022D8
:10007E00E5082403F582E43400F583E005082290B8
:10008E000000300703900003E475F00112055902D9
:10009E0005012000E97F2ED2008018EF540F249026
:1000AE00D43440D4FF30040BEF24BFB41A005003F5
:1000BE002461FFE50960021509050CE50C700205C7
:1000CE000B30070E900000E475F001120559EF0297
:1000DE000547020A537403D2078003E4C207F508EA
:1000EE00900000120570E4F509F50BF50CE50960BA
:1000FE00077F201200C180F5750AFFC201C200C23F
:10010E0002C203C205C206C20812008DFF700D3076
:10011E0007057F001200D2AF0CAE0B22B4255FC2D2
:10012E00D5C20412008DFF24D0B40A00501A75F007
:10013E000A780930D50508B6FF0106C6A426F620B2
:10014E00D5047002D20380D924CFB41A00EF500424
:10015E00C2E5D2040202D3D20180C6D20080C0D240
:10016E000280BCD2D580BAD20580B47F201200C1E5
:10017E002002077401B5090040F112007EFF120043
:10018E00C10200FBD208D206809512007EFB12003F
:10019E007EFA12007EF94A4B700679A47A037BFF31
:1001AE0020022EE509602A7E008E827583001205DC
:1001BE001A60060EEE650A70F0C2D5EBC0E0EAC01A
:1001CE00E0E9C0E0EE12031AD0E0F9D0E0FAD0E098
:1001DE00FB120501FF60AAEBC0E0EAC0E0E9C0E057
:1001EE001200C1D0E02401F9D0E03400FAD0E0FBD7
:1001FE00E50A0460DCD50AD980877BFF7A0379167D
:10020E00D202809C791080027908C206C20880084A
:10021E00D2D5790A8004790AC2D5E50A047002F5AE
:10022E000AE4FAFDFEFF12007EFC7B082001131289
:10023E00007EFD7B1030000A12007EFE12007EFF53
:10024E007B20EC3382D592D55013C3E43000069F49
:10025E00FFE49EFEE42001039DFDE49CFCE4CBF84C
:10026E00C201EC700CCFCECDCCE824F8F870F38040
:10027E0017C3EF33FFEE33FEED33FDEC33FCEB3300
:10028E00FB994002FB0FD8E9EB300105F8D0E0C432
:10029E0048B201C0E00AEC4D4E4F78207B0070C290
:1002AE00EAB50A0040BCC0E012031CD0F0D0E0203A
:1002BE000104C4C0E0C4B201C0F01200AAD0F0D54F
:1002CE00F0EB0200FB1205790198530212580169F6
:1002DE004C01654202164F021E44021E49017E4326
:0802EE00022455020846020833
:1002F6004502084703C450016D2D01712E01942B50
:1003060001752301922003AD2A012D480000018CBE
:100316003F3F3F00790AA2D5200314300509B910E2
:10032600020404B9080104A2D520060250010420E3
:1003360002689202B509005034C0E07F20300319EC
:100346007F30A20272067205500F120373C202C2F8
:1003560006C205C2087F30800F300503E9C0E012EF
:1003660000C1300503D0E0F9D0E0B509CC3005175F
:100376007F30B9100C1200C17F583004077F788097
:1003860003B908031200C13002057F2D0200C17FA8
:10039600202008F87F2B2006F322920280CF286EB9
:1003A600756C6C2900D20112007E3001F8C201780A
:1003B6000930D50108F602012D2D50434958120087
:1003C6007E2403B405004001E49003BF931200B2FB
:0D03D600743A1200B2D2037509040202123B
:10050100BB010689828A83E0225002E722BBFE02F8
:09051100E32289828A83E493222B
:10051A00BB010CE58229F582E5833AF583E0225096
:10052A0006E92582F8E622BBFE06E92582F8E222E0
:0D053A00E58229F582E5833AF583E49322FA
:10054700BB010689828A83F0225002F722BBFE0193
:02055700F3228D
:10055900F8E0FBA3A3E0F925F0F0E582158270022B
:070569001583E0FA38F022CF
:09057000EBF0A3EAF0A3E9F0228C
:10057900D083D082F8E4937012740193700DA3A311
:1005890093F8740193F5828883E473740293686025
:06059900EFA3A3A380DF25
:100A5300EFB40A07740D120A5E740A309811A8994C
:100A6300B8130CC2983098FDA899C298B811F63003
:070A730099FDC299F59922DB
:00000001FF
