:03000B0002028C62
:0F028C00C091758CC1758A80C28DB295D09132A8
:10021700A2AF9200C2AF75C7AA75C755E4F591A200
:100227000092AF53B3DF43B4205389F043890143AE
:100237008E08758CC1758A80D2A9D2AFD28C80FE08
:010247002294
:02000E00A90740
:10001000E4F591E924F9600C14600E2402700D756A
:10002000A638800875A630800375A630A2AF92006E
:10003000C2AF75C7AA75C755439F01A20092AFE42E
:10004000F5A775AF04A2AF9200C2AF75C7AA75C776
:100050005543A401A20092AFADAE05A6A2AF920097
:10006000C2AF75C7AA75C75543A401A20092AFAC31
:10007000AEE924F8706FED25E0FFE433FEEC5401A7
:100080007A002FFFEA3EFE74F22FFF74FF3EFE75EA
:10009000AF0C75A601E4F5A7A2AF9200C2AF75C779
:1000A000AA75C75543A401A20092AFABAEEB644B57
:1000B000600EABAEEB64526007ABAEEB6453701BEB
:1000C000ED543FC3940774809480500A74F62FFF58
:1000D00074FF3EFE8005EF1F70011EEF5401FCEE21
:1000E000C313EF13FD75C7AA75C7558D8475C7AACD
:1000F00075C7558C85A2AF9200C2AF75C7AA75C7E8
:0801000055539FFEA20092AFCF
:0101080022D4
:10018600EF24FD60121460282402704B7F021201D6
:10019600DE7F02120109227F03120109A2AF92003B
:1001A600C2AF75C7AA75C7555397DFA20092AF2293
:1001B6007F021201DE7F021201097F041201DE7F37
:1001C60004120109A2AF9200C2AF75C7AA75C7553E
:0801D6005397DFA20092AF2253
:1001DE00EF24FC60222402702FA2AF9200C2AF75F2
:1001EE00C7AA75C755439720A20092AFE59644DF84
:1001FE0064DF701480F62275C7AA75C7554397C081
:09020E00E59644F764F760F8225C
:10024800E4F591EF24FC60182402701DA2AF92001F
:10025800C2AF75C7AA75C7555397DFA20092AF22E0
:0A02680075C7AA75C75553973F22CA
:10010900E4F591A2AF9200C2AFEF24FD602F146015
:100119005424027063A2AF9200C2AF75C7AA75C713
:10012900555396FBA20092AFA2AF9200C2AF75C71A
:10013900AA75C7555396FDA20092AF803BA2AF9214
:1001490000C2AF75C7AA75C755439604A20092AFFE
:10015900A2AF9200C2AF75C7AA75C7555396FDA243
:100169000092AF8013A2AF9200C2AF75C7AA75C73C
:0D01790055439608A20092AFA20092AF225B
:0300000002027287
:10027200787FE4F6D8FD9000007FFF7E03E4F0A3D0
:0A028200DFFCDEFA7581200202178E
:00000001FF
